:020000040000fa
:080000000002040000000000f2
:020000040000fa
:100400000f8020000e7f24000e01880000000000f5
:100410000c000700a03b2000010020001100070095
:10042000000020000000e000020032000000020096
:100430000000000056030200000000000040da0047
:100440000000fe004440a900000020000000e00081
:100450000300320000002000a00188004440a800f2
:100460000000060091018800800078000000eb0089
:1004700015003700e280400032a0b4009101ba00bc
:10048000e280400032a0b4009102ba00e280400055
:1004900032a0b4000002eb00472bde00f507b200eb
:1004a000602ce10004003a000059eb008301e900f0
:1004b000fdff3e00040037006128e100010032002a
:1004c0000082eb00040007001101ba000200e00006
:1004d000e8ff3a00000006003159ba008301e90044
:1004e0000c0032002159ba008301e90008003200f3
:1004f0000400e00003003a00e280400032a0b400b3
:10050000f5ff370011d9ba008301e900faff3a007c
:100510008100e800e180400032a0b4000000060045
:100520000040da000000fe003020880000000600d5
:1005300080208800912088000000060000218800ab
:10054000000006001021880000000600202188001d
:10055000000006003021880000000600881f780097
:10056000010478000202be006381620081fe2f0058
:10057000810071000083fb0007002000ef0f530093
:10058000e08f5b0041003e008100640006600100d6
:100590000f0037001000370012003700140037003a
:1005a00016003700180037001a0037001c0037000b
:1005b0001e003700200037002200370024003700db
:1005c00026003700280037002a0037002c003700ab
:1005d000012288002f003700212288003422880061
:1005e0002d00370041228800542288002a0037005d
:1005f0006122880074228800270037008122880049
:100600009422880024003700a1228800b4228800a8
:1006100021003700c1228800d42288001e00370044
:10062000e1228800f42288001b00370001238800a3
:100630001423880018003700212388003423880001
:10064000150037004123880054238800120037002a
:1006500061238800742388000f00370081238800fd
:10066000942388000c003700a1238800b42388005d
:1006700009003700c1238800d42388000600370012
:10068000e1238800f42388000300370001006400a0
:1006900000228800142288004f0478000000060021
:0c06a000002088001120880000000600e7
:020000040000fa
:0200000401f009
:04000c00faff0000f7
:020000040000fa
:0200000401f009
:04001000feff0000ef
:020000040000fa
:1000080090020000900200009002000090020000a0
:100018009002000090020000900200009002000090
:100028009002000090020000900200009002000080
:100038009002000090020000900200009002000070
:020000040000fa
:020000040000fa
:1006ac000400fa000000eb00100798000000eb00bb
:1006bc00000f7800300c200010079800f073200019
:1006cc00000f78009e0078001e00900095ff070038
:1006dc0090fe2d00100798001e0090008fff070061
:1006ec003012200092ff07007056240092ff070082
:1006fc00b09a280092ff0700f0de2c0092ff070052
:10070c0030022000100798006011b8009e00900085
:10071c0010c0b3008eff070070af2e0010079800ba
:10072c0010fe2f00000f78009e0078001e00900035
:10073c00d8ff0700ffff37000200fa00000f780017
:10074c00c9e2a9001e00780061406000c700dd000e
:10075c00cdc2bf000074a10001407000cde2b70013
:08076c000080fa000000060005
:020000040000fa
:040774000000000081
:00000001FF
